:4000000000800020110000006D0500006D05000008B5044B1A6803F53F5302331A6000F0A7FA00BFFA46004010B5054C237833B9044B13B10448AFF300800123237010BDF2
:400040004081FF1F00000000841C0000084B10B51BB108480849AFF300800848036803B910BD074B002BFBD0BDE81040184700BF00000000841C00004481FF1F0881FF1F91
:400080000000000008B5C0B200F0E8FC642001F0DDF908BD08B50120052101F043F8064B187801F05DF801200A2101F03BF8034B188801F055F808BD8081FF1FC481FF1FF3
:4000C00010B5274B1B7801F041FAB0FA80F0400901F030FA234A136801331360224A1268032A3CD1214A1268934238D11D4B00221A605B683BB901221A4B5A601B4B5A68F5
:400100001B4B1A7022E0012B0AD1012001F042FA0222144B5A60154B9A68154B1A7015E0022B0AD1002001F035FA03220D4B5A600E4BDA680E4B1A7008E0032B06D10023ED
:40014000084A5360084A136001F072FA084C2078FFF798FFFFF79EFF2278064B1A6010BD034F00405C81FF1F9481FF1F0C81FF1F8081FF1FC481FF1F38B500F057FC3128A4
:400180000BD14C4B1B6843B1032B00F091800020484B186001F0FEF938BD322811D1454B1B68012B0DD00120424B186001F0F2F9414B1A78414B1A60414B1A68414B1A608C
:4001C00038BD3C4B1B680BB1032B10D1F4280ED9394C2070FFF75EFF2078FFF753FF354B1B68032B64D12278344B1A6038BD412807D1022B05D0032B03D002222D4B1A60A2
:4002000038BD022B10D1EF280ED8E4280CD960F00F03DBB22C4A5360274C2370FFF73AFF2078FFF72FFF38BD022B10D1DF280ED8D4280CD960F00F03DBB2234A93601E4C3A
:400240002370FFF727FF2078FFF71CFF38BD022B10D1CF280ED8C4280CD960F00F03DBB2194AD360144C2370FFF714FF2078FFF709FF38BD42281BD1032B19D003220D4B7F
:400280001A60124B00241C6001225A600E4B5B68094D2B70FFF7FEFE2A78084B1A60084B1A68084B1A6001F01BFA204601F072F938BD00BF9481FF1F8081FF1FC481FF1FA9
:4002C0009081FF1F8481FF1F0C81FF1F5C81FF1F10B4094B1B69013B06E05A1E074951F8224041F823401346002BF6DC034B18605DF8044B704700BF0C81FF1F9C81FF1F1D
:400300000023184604E0064A52F8232010440133044A12699342F6DB90FBF2F0704700BF9C81FF1F0C81FF1F10B50C460020072100F0F8FE094800F08DFE0020072100F072
:40034000F1FEA0B200F00CFF00200C2100F0EAFE034B188800F004FF10BD00BF881C00008481FF1F10B5002000F078FD98B100F08DFD84B2002800DA002440F2D5639C4237
:4003800001D840F2D66441F29A039C4200D91C46642001F05BF8204610BD00BF38B50124002509E0E0B201F0E9F8642001F04EF8FFF7D8FF05440134032CF3DD024880FB07
:4003C0000530A0EBE57038BD5655555500B5074B83FB00E2C017C0EB221083FB0123C917C1EB2311401A5DF804FB00BFD34D621000220D4B9A60F538411A01F1F500F42823
:4004000010DDFF280FDD0A39322303FB01F1064BD960FF2901DDFF22DA600122024B9A60FF207047F52070475C81FF1F10B500F06BFE012000F01CFE404800F00BFE012057
:40044000002100F06FFE3E4800F004FE01F086F801F084F800F0E6FC00F0F8FC62B6394801F05AF8384801F0C1F800F0D1FA00F0E3FA00F0FDFA002001F05CF8002001F009
:4004800089F8FF2001F050F90023304A1360304A1360FA202F4B187040F674622E4B1A60FFF7F0FDFFF7F6FDFFF778FF2A4C2060FFF70EFFFFF724FF0146284B1860206845
:4004C000FFF732FF214B1B68012B01D0032BEBD1224B1868224B1968FFF778FF044680EAE070A0EBE47001F0A5FA0022002301F07BFBD8B101F02AF8B0FA80F0400901F0A8
:4005000019F8184B18682146FFF772FF114B1870154B9B68012B06D1134B187B01F00AF901F028F902E00BB901F0F0F8FFF7B2FD084B1878FFF7A6FDB6E700BF901C000010
:40054000981C000079010000C10000009481FF1F9881FF1F8081FF1F8881FF1F9081FF1F8481FF1FC481FF1F5C81FF1FFEE700BF08B5104E104D16E029686B68AC68002280
:4005800004E051F8040B43F8040B0432A242F8D1E868002203E0002143F8041B04328242F9D11035013E002EE6D101F031FBFFF73DFFFEE701000000401D000008B5124A2A
:4005C000124B1A60124A136843F40073136000230AE0032B03D80F4A52F8231000E00E490E4A42F8231001332F2BF2D90C4B1A780C4B1A70094A0C4B1A6000F03FF90022B7
:400600000A4B1A6008BD00BF0004FA050CED00E014ED00E0000000006D0500000080FF1FBC7600400481FF1F08ED00E00081FF1FFEE700BFF0B40022174611E050F827608A
:40064000F3B226F0FF0608E001EB420511F812406D78A5550132013BDBB2002BF4D101371E2FEBD9F0BC7047064B1B78DBB203F00701054A11701B09013213704422034B03
:400680001A707047CF0100496E5800407658004008B50A46002101F0ECFA08BD08B501F0DDFA08BD38B50024384B1C80502202331A70EF2202331A801823354A13704FF4F7
:4006C0009C71023211800232137047F22F52314B1A80192502331D70092202331A801B2202331A702C482D490422FFF7D7FF02222B4B1A7008224FF040231A70032103F539
:4007000000731970274B1B78DBB227490B70274B1A8041F25122023B1A800CE0244B1B7803F0010343EA440404F003044FF4F07000F07AFE013D0DB1032CEFD115B903207B
:40074000FFF776FF1B4B4FF480721A8007221A70002219490A704820023108701A700222033B1A7004220A331A70144A137843F01F031370013A137843F001031370013A36
:40078000137843F08003137038BD00BF80400040864000408C40004000410040B40400480043004008010049A146004022420040254200400440004006400040A2430040B8
:4007C000032817D810B44000C0B20B4B53F820101A1892F820400A7822430A700130C0B253F82020184490F8201013780B4313705DF8044B704700BFA01C0000032819D88B
:4008000010B44000C0B20C4B53F820101A1892F820400A7822EA04020A700130C0B253F82020184490F82010137823EA010313705DF8044B704700BFA01C0000012809D805
:40084000054B03EB8002926A184490F8301013780B431370704700BFA01C000001280AD8054B03EB8002926A184490F83010137823EA010313707047A01C000070B572B640
:40088000384A137843F00403137000240AE0364963001A1952000A44506B118FFFF7F8FE0134E4B2092CF2D900240BE02E49A3001A1952000A44106F516F8022FFF7EEFEDA
:4008C0000134E4B2002CF1D04FF090402749FFF7B1FE0A25264B1D70264A137843F0020313701032137843F002031370224C237843F040032370A2F58632513A137843F007
:40090000100313701D481E490822FFF7C7FE1D481D492A46FFF7C2FE1C481D490822FFF7BDFE1C481C490822FFF7B8FE1B481C492A46FFF7B3FE1B4A137843F008031370AB
:40094000194E01253570FFF7ADFE81233370174B1D70FFF789FE164821460E22FFF79EFE70BD00BFE8460040A01C00007C0000488358004003500140A0430040C25100406B
:4009800084040048F05100408C040048225100409804004842510040A004004860510040A8040048224300400048004004000840B04300407222074B1A70202201331A70B7
:4009C0000622623B1A70472210331A7001224F331A7070478D64004010B500F02DFD04460A4A137843F0200313700132137843F010031370033A137843F01003137000F072
:400A0000DFFB204600F01CFD10BD00BF9D64004008B5054B1B7823B9FFF7CCFF0122024B1A70FFF7D9FF08BD7081FF1F014B1878704700BF4E64004008B500F0FDFC064B8C
:400A40001A7842F001021A701A7802F0FE021A7000F0F6FC08BD00BF9E640040024B1B780BB1024B187070477081FF1F4B64004008B500F0E1FC064B1A7842F001021A701D
:400A80001A7802F0FE021A7000F0DAFC08BD00BF9B64004010B59DF80840012C4AD10138092826D8DFE800F00525250525250D15251D0F2B02D9214800781BE020480078C3
:400AC00018E00F2B02D91F48007813E01E48007810E00F2B02D91D4800780BE01C48007808E00F2B02D91B48007803E01A48007800E0002040B201EB401101FB02F1C90B09
:400B00008AB20D2B0BD8C3F10E0289B211418AB2124901EB8401013301F8023C05E00F4B03EB84030F2103F8021C013C0B4B23F8242010BD002000F087FC10BD180100491C
:400B40001C010049190100491D0100491A0100491E0100491B0100491F0100497481FF1FF8B5074600F068FC06460D4D2B7843F003032B700B4C237843F0030323700A4B1A
:400B80001F70032000F078FC2B7803F0FC032B70237803F0FC032370304600F051FCF8BDF8460040F9460040925800400022314B1A7101285DD170B534222F4B1A70062219
:400BC00002331A70082201331A70002401331C7001331C701F2201331A7002331C7001331C7001331C7001250A331D70142203F527631A70052601331E70162201331A7055
:400C000001331C70442203331A70482201331A7001331D7002331C7001331C700A2201331A70432201331A705220FFF799FF5822124B1A7001331C7005331E700222013318
:400C40001A7001331C7001331C70204600F0D6FA40F233320A4B1A602C20294600F0F2FAB620294600F072FB1D20064900F00EFC70BD70477481FF1F004E0040945800406E
:400C8000C881FF1FDD0E0000F0B583B0284D01272F70284E00247471102000F0C1FA102000F042FB1D20072100F004FC0422224B1A7001331C7007331C70204A137843F0F7
:400CC000180313701E4B1C7003F2F5231C7001331C700A22A3F209331A7001331C7002331C70122205331A70132201331A7004331C701422A3F68C231A700097022048F655
:400D00006B514FF400420C23FFF7C4FE2B7806EB830313F8022C0B4B1A702B78013B36F82320094B1A802878FFF740FF03B0F0BD2881FF1F7481FF1F96580040075B00403B
:400D4000935800400E4E00400C4E004070B500F073FB06462A4B1B782A4B1A7842F001021A701A7842F010021A7010331A7842F001021A701A7842F010021A70224D2B780F
:400D800043F002032B70214C237843F0020323701F4A137843F003031370032000F06CFB2B7803F0FD032B70237803F0FD032370184A137843F0060313707A22164B1A70DE
:400DC000164A137843F0010313701032137843F0010313700F3A137843F0010313701032137843F0010313704FF000530C4A1360A2F5C0721360304600F022FB70BD00BFAC
:400E00002881FF1FAA430040F8460040F9460040915800407758004082580040A143004080E200E008B5084B9B794BB9064BDB7913F0FF0F01D1FFF727FF0122024B9A71C2
:400E4000FFF784FF08BD00BF7481FF1F024A137843F0010313707047004E0040094B1B7913F0FF0F03D0074B5B79DBB203E0064B1B7803F00103012B01D00028EED018460E
:400E8000704700BF7481FF1F014E00400E4B1B7803F00303012B03D80C4B188880B209E00A4A12780A49087842EA0020032B01D1084B1B78084B1B7913F0FF0F02D000224D
:400EC000054B5A7100B27047144E0040104E0040114E0040124E00407481FF1F704700BF10B50B4C237803F09F032370237803F0F00323702378184340F01000207001208C
:400F000000F0BAFA237803F0EF03237010BD00BF2051004038B505460E4C237843F020032370237803F0BF032370002000F0A4FA237803F0F003237023781D4345F01005BD
:400F40002570012000F098FA237803F0EF03237038BD00BF2051004070B5354B1A7802F08002D2B21A7033490A7802F0F00242F00F020A7001310A7802F0F0020A70013125
:400F80000A7802F0F0020A701A7802F0DF021A701A7842F040021A704FF4CA76002000F06BFA234D2B7843F010032B70012000F063FA214B1C78E4B22B7803F0EF032B70BF
:400FC000002000F059FA04F00804E4B22B7843F010032B70012000F04FFA2B7803F0EF032B7014B90A2000F047FA013E0CB1002ED4D10F4A137803F0BF031370137803F066
:401000008003DBB213700232137803F0F00313700132137803F0F00343F00F0313700132137803F0F00343F00F03137070BD00BF20510040225100402151004010B504460C
:40104000FFF78AFF2009FFF765FF04F00F00FFF761FF10BD38B505460078012404E0FFF7EDFF285D0134E4B20028F8D138BD00BF10B50446FFF770FF2009FFF731FF04F001
:401080000F00FFF72DFF10BD08B5282000F0DEF90320FFF725FF052000F0D8F90320FFF71FFF0F2000F0D2F90320FFF719FF012000F0CCF90220FFF713FF052000F0C6F91D
:4010C0000620FFF7D5FF0E20FFF7D2FF2C20FFF7CFFF0820FFF7CCFF0120FFF7C9FF0C20FFF7C6FF0320FFF7C3FF052000F0AEF908BD00BF08B50C20FFF7BAFF0122014B2A
:401100001A7008BD7C81FF1F08B5054B5B7823B9FFF7BAFF0122024B5A70FFF7EBFF08BD7C81FF1F08B5032819D8DFE800F002070D1381F08000FFF79BFF08BDA1F140000F
:40114000C0B2FFF795FF08BDA1F16C00C0B2FFF78FFF08BDA1F12C00C0B2FFF789FF08BD00B585B000238DF80E30092210E0134BA3FB0013DB08194603EB83035B00C31A9A
:40118000303304A8104400F80C3C0846013AD2B20928ECD8094BA3FB0013DB0803EB83035B00C31A303304A9114401F80C3C01AB9818FFF74FFF05B05DF804FBCDCCCCCC76
:4011C000054A137843F0040313701032137843F004031370704700BFA243004010B5002404E02046FFF73AFB0134E4B2012CF8D9FF22014B1A7010BD2981FF1F10B5044671
:40120000FFF7ECFF2046FFF719FB014B1C7010BD2981FF1F014B188880B2704780400040034B1A7800F0F80010431870704700BF82400040024B187800F00700704700BFB6
:401240008240004070B505460E46FFF7F3FF0446FFF7E0FF854256D02B4B1B7803F0010294B900B185B938B9284B1D80284A137803F0BF03137070BD254A137843F04003A6
:401280001370224B1D8070BD22B3002321490B7001240F310C7004310B700C390B7803F07F030B701A4B1B7813F0080F00D08DB9194B18800721013B1970164B1B7813F046
:4012C000010FFAD110490B7803F0FE030B700021104B19700C4B1B7813F0010F0DD00E4B1D800EB1032200E001220A4B1A70094B1B7813F0010FFAD170BD044B1D80024904
:401300000B7813430B7070BDA243004080400040824000400140004002400040014B188880B2704700410040034B1A7800F0F80010431870704700BF02410040024B187833
:4013400000F00700704700BF0241004070B505460E46FFF7F3FF0446FFF7E0FF854256D02B4B1B7803F0010294B900B185B938B9284B1D80284A137803F0BF03137070BD27
:40138000254A137843F040031370224B1D8070BD22B3002321490B70012413310C7004390B7008390B7803F07F030B701A4B1B7813F0080F00D08DB9194B18800721013B4D
:4013C0001970164B1B7813F0010FFAD110490B7803F0FE030B700021104B19700C4B1B7813F0010F0DD00E4B1D800EB1032200E001220A4B1A70094B1B7813F0010FFAD1E7
:4014000070BD044B1D8002490B7813430B7070BDA143004000410040024100400140004002400040000000000230800803D000BF01380046FCD17047EFF3108072B67047FC
:4014400080F31088704700BF01BE704710B5044605E0084B1868FFF7E7FFA4F50044B4F5004FF6D8034B586800FB04F0FFF7DCFF10BD00BF2C81FF1F08B5034B1B7A03FB6C
:4014800000F0FFF7D1FF08BD2C81FF1F70B504460E46074B1D681F2802D90020FFF7D4FF04F01F04103455F8240045F8246070BD08ED00E038B504460D46072902D90020FD
:4014C000FFF7C2FF1F2C02D90020FFF7BDFF04F01F0000F1604000F564406D01EDB2057038BD00BF014B1B685864704708ED00E04001C0B2014B1870704700BF01E400E0F1
:401500000222014B1A60704700E100E00222014B1A60704780E100E010B50446FFF7F6FF2046FFF7DFFF0720FFF7E2FFFFF7E8FF10BD00BF044A137803F0FB03800000F092
:40154000040018431070704760510040024B1878C0F38000704700BF6151004010B5002404E02046FFF74AF90134E4B2032CF8D9FF22014B1A7010BD3C81FF1F10B5044687
:40158000FFF7ECFF2046FFF71BF9014B1C7010BD3C81FF1F044A137803F0F703C00000F0080018431070704760510040024B1B68C3F88400704700BF08ED00E04001C0B24C
:4015C000014B1870704700BF11E400E04FF40032014B1A60704700BF00E100E04FF40032014B1A60704700BF80E100E010B50446FFF7F4FF2046FFF7D9FF0720FFF7DEFF42
:40160000FFF7E4FF10BD00BF084A137843F0010313701032137843F00103137002F64D32137843F001031370704700BFA3430040084A137803F0FE031370A2F65D321378C9
:4016400003F0FE0313701032137803F0FE031370704700BF004F0040014B1870704700BF034F0040014B1880704700BF044F0040014B1880704700BF064F004008B5154AD6
:40168000137803F0010313700232137803F0FC031370114B1A7802F0CF021A701A7842F030021A701A7802F0F0021A701A7842F00F021A70094A137843F0010313706320BC
:4016C000FFF7D0FF6320FFF7D3FF0820FFF7C4FF08BD00BF004F00400B4F0040014F004008B5054B1B7823B9FFF7C8FF0122024B1A70FFF789FF08BD7E81FF1F024A137852
:4017000043F08003137070477A640040024A137803F07F03137070477A640040014B1870704700BF0A640040014B1870704700BF4A640040014B1870704700BF2A640040AF
:4017400008B50B4A137803F0C00343F0090313702032137843F001031370FF20FFF7DEFFFF20FFF7E1FFFE20FFF7E4FF08BD00BF7A64004008B5054B1B7823B9FFF7E0FFEC
:401780000122024B1A70FFF7B9FF08BD7F81FF1F81F0004102E000BF83F0004330B54FEA41044FEA430594EA050F08BF90EA020F1FBF54EA000C55EA020C7FEA645C7FEAC6
:4017C000655C00F0E2804FEA5454D4EB5555B8BF6D420CDD2C4480EA020281EA030382EA000083EA010180EA020281EA0303362D88BF30BD11F0004F4FEA01314FF4801C43
:401800004CEA113102D0404261EB410113F0004F4FEA03334CEA133302D0524263EB430394EA050F00F0A780A4F10104D5F1200E0DDB02FA0EFC22FA05F2801841F1000114
:4018400003FA0EF2801843FA05F359410EE0A5F120050EF1200E012A03FA0EFC28BF4CF0020C43FA05F3C01851EBE37101F0004507D54FF0000EDCF1000C7EEB00006EEB34
:401880000101B1F5801F1BD3B1F5001F0CD349085FEA30004FEA3C0C04F101044FEA445212F5800F80F09A80BCF1004F08BF5FEA500C50F1000041EB045141EA050130BDD3
:4018C0005FEA4C0C404141EB010111F4801FA4F10104E9D191F0000F04BF01460020B1FA81F308BF2033A3F10B03B3F120020CDA0C3208DD02F1140CC2F10C0201FA0CF071
:4019000021FA02F10CE002F11402D8BFC2F1200C01FA02F120FA0CFCDCBF41EA0C019040E41AA2BF01EB0451294330BD6FEA04041F3C1CDA0C340EDC04F11404C4F12002C2
:4019400020FA04F001FA02F340EA030021FA04F345EA030130BDC4F10C04C4F1200220FA02F001FA04F340EA0300294630BD21FA04F0294630BD94F0000F83F4801306BF1A
:4019800081F480110134013D4EE77FEA645C18BF7FEA655C29D094EA050F08BF90EA020F05D054EA000C04BF1946104630BD91EA030F1EBF0021002030BD5FEA545C05D187
:4019C0004000494128BF41F0004130BD14F580043CBF01F5801130BD01F0004545F0FE4141F470014FF0000030BD7FEA645C1ABF194610467FEA655C1CBF0B46024650EAD0
:401A0000013406BF52EA033591EA030F41F4002130BD00BF90F0000F04BF0021704730B54FF4806404F132044FF000054FF0000150E700BF90F0000F04BF0021704730B5BF
:401A40004FF4806404F1320410F0004548BF40424FF000013EE700BF42004FEAE2014FEA31014FEA02701FBF12F07F4393F07F4F81F06051704792F0000F14BF93F07F4F2D
:401A8000704730B54FF4607401F0004521F0004120E700BF50EA010208BF704730B54FF000050AE050EA010208BF704730B511F0004502D5404261EB41014FF4806404F16E
:401AC00032045FEA915C3FF4DCAE4FF003025FEADC0C18BF03325FEADC0C18BF033202EBDC02C2F1200300FA03FC20FA02F001FA03FE40EA0E0021FA02F11444C1E600BF59
:401B00004FF0FF3C06E000BF4FF0010C02E000BF4FF0010C4DF804CD4FEA410C7FEA6C5C4FEA430C18BF7FEA6C5C1BD001B050EA410C0CBF52EA430C91EA030F02BF90EAAF
:401B4000020F0020704710F1000F91EA030F58BF994208BF90422CBFD8176FEAE37040F0010070474FEA410C7FEA6C5C02D150EA013C07D14FEA430C7FEA6C5CD6D152EA72
:401B8000033CD3D05DF8040B704700BF8446104662468C461946634600E000BF01B5FFF7B7FF002848BF10F1000F01BD4DF808EDFFF7F4FF0CBF012000205DF808FB00BF83
:401BC0004DF808EDFFF7EAFF34BF012000205DF808FB00BF4DF808EDFFF7E0FF94BF012000205DF808FB00BF4DF808EDFFF7CEFF94BF012000205DF808FB00BF4DF808EDE5
:401C0000FFF7C4FF34BF012000205DF808FB00BF0E4B70B51E460E4C0025E41AA410A54204D056F8253098470135F8E700F076F8084B094C1E46E41AA4100025A54204D03F
:401C400056F8253098470135F8E770BD281D0000281D0000281D0000301D000010B5431E0A44914204D011F8014B03F8014FF8E710BD03460244934202D003F8011BFAE7EF
:401C80007047000000000000202020202000000050686F746F3A200050574D3A200000006D510040005B00404D510040005B00404D510040005B00404D510040005B004017
:401CC0002002011002200440035B00402443004040000000004F00400C0000510040200030510040100050510040100000000140000E800E0140800100140140000800407C
:401D00000140000A004C01400002005001402000000E01400404004880000000F8B500BFF8BC08BC9E4670474D000000BD050000F8B500BFF8BC08BC9E46704729000000C3
:401D4000501D00000881FF1F38000000900000000000000014000000FF000000FA000000F50000000A000000010000000300000001FF00000000E02EC05D00001800000034
:401D800000366E01FF00000000000000000000000000000000000000000000000000000000000000000000000000000000000000000000000000000000000000000000007F
:401DC00000000000000000000000000000000000000000000000000000000000000000000000000000000000000000000000000000000000000000000000000000000000E3
:401E000000000000000000000000000000000000000000000000000000000000000000000000000000000000000000000000000000000000000000000000000000000000A2
:401E40000000000000000000000000000000000000000000000000000000000000000000000000000000000000000000000000000000000000000000000000000000000062
:401E80000000000000000000000000000000000000000000000000000000000000000000000000000000000000000000000000000000000000000000000000000000000022
:020000040003F7
:0200000480007A
:40000000024F00400352004003640040010101400205014004080140070901405F0A01403E0B0140520C01403D0D0140150E0140330F014001150140011701400219014079
:40004000011B014006400140024101400542014002430140074401400645014007460140044701400448014001490140034C0140024D0140035001400151014001400A1B13
:400080003140340160208B0F8D728E38E204E208EE0138823E4158045F011C401F80A802AB08B080B310B5800010022004010606070108200A100C0C0E031302160C183052
:4000C0001B01220324302A082C012E0E300F3301343035023A024060410246204701481849FF4AFF4BFF4DA04F0450185280580459045A045B045C125D115F01604062C0CC
:400100006440654066C068C06AC06CC06EC0801C8222860388108C2C8E1196209C14A220A430A60CA901AC09AE10AF02B102B21FB420B501BE10BF10C034C101C6C0C7BE04
:40014000C838C9FFCAFFCBFFCEF0CF44D00CD401D604D804D904DA04DB04DC32DD22DF01E6C0EA40EB02000201200210030204400505060709180E100F22110412451580A2
:40018000165019211B021D041F14200822102320260127082D802F083102321038084110465248045004511057195C825E105F086780710287608D489040918497089A540D
:4001C0009D21A001A110A601A710AB02C0FFC2A6C4BFCA30CC05CE02D0D4D204D6F0D880E00200AA02440433064C0A800C330EC4130314031604190222552E8830C8323028
:400200003301340F370238083A223E044003470449FF4A074BFF4C404D204EF04F055008580459045A045C325D025F01604061A862406320800481108308853989398A04FC
:400240008D028E03901C9201941C950896029730980899029C109D01A302A41FA818A920AB08AC07AD04AE18B101B21FB338B706B980BA08BB20D602D712D804D904DB04C6
:40028000DC22DD20DF0100020202030804440501061409010A150F2013641580164018201A101C441D081F202141220A2314271229212A4032483320360137103840391448
:4002C0003A023D30450856445A0869146A8071047205732092089340942095029605971C9A029D24A001A101A308B001B202B708C0FBC22FC497CA0DCCAECE0FD040D60294
:40030000810C8303850F890C8B038D038F0C950CA108A504A910AF02B10EB301B510B908BB02BF10D904DC20DF01000A01200B20108011081208131018051B092008224521
:40034000248025052708288229242E452F2432483320350438A039103A0A3B043D123F44408141014248488449804B40531059805A825C025E01600463828340C00EC20425
:40038000C40ECAFFCC4ECEFFD00DD20CD601D80DEC10EE04AB80B440EC103002324035808180CC70E2209680A4028402A402AA40E210EE806308D8400102620876107C205F
:4003C000C008D802DE059C209E10B102B608EA01EC020404450886109C209E10C004D0019C20A508B404EE022510AB04C820EE20B510A508B420E802B508EC08000E0C0EE6
:400400000E0C002B00410C0000FF0100003C04C3001F00E00000000000C310000004000000F3000C000001E3000C1000008202000008000001C00810102C060F000000801C
:40044000000051045402060001C0E0000AFFFFFF62A0F0410C00000018000400040404042222000100000000000040020010301000101012000000000000000000000000AF
:40048000000000000020200020000000200020002000000000000000007F7F000000000000000000000007004000014C4C00400020000000B600180100000000000000006F
:4004C00000000000000000000000000000000000000000000000000000000000000000000000000000000000000000000000000000000000000000000000000000000000FC
:4005000000000000000000000000000000000000000000000000000000000000000000000000000000000000000000000000000000000000000000000000000000000000BB
:40054000000000000000000000000000000000000000000000000000000000000000000000000000000000000000000000000000000000000000000000000000000000007B
:40058000000000000000000000000000000000000000000000000000000000000000000000000000000000000000000000000000000000000000000000000000000000003B
:0200000490006A
:0400000000004005B7
:0200000490105A
:04000000BC90ACAF55
:0200000490303A
:02000000066E8A
:0200000490402A
:4000000000000000000000000000000000000000000000000000000000000000000000000000000000000000000000000000000000000000000000000000000000000000C0
:400040000000000000000000000000000000000000000000000000000000000000000000000000000000000000000000000000000000000000000000000000000000000080
:400080000000000000000000000000000000000000000000000000000000000000000000000000000000000000000000000000000000000000000000000000000000000040
:4000C0000000000000000000000000000000000000000000000000000000000000000000000000000000000000000000000000000000000000000000000000000000000000
:0200000490501A
:0C00000000012E12306900012E1E36D7C0
:00000001FF